:0A0000000C9454000C9400000C94C2
:10000A0000000C9400000C9400000C9400000C9466
:10001A0000000C9400000C9400000C9400000C9456
:10002A0000000C9400000C9400000C9400000C9446
:10003A0081000C9400000C9400000C9400000C94B5
:10004A0000000C9400000C9400001027E8036400E0
:10005A000A00010000100001100001000405070851
:10006A000A0B25753A003025753A002575003025AA
:10007A0075002573257325730025752F00302575A6
:10008A002F006E6869657420646F3A25660080C027
:10009A000600640166000200A20198000000F894BC
:1000AA00EE27ECBBF1E0FBBFEBBFE5BF8DE0A2E0C2
:1000BA00BB27ED938A95E9F780E094E0A0E6ED93FB
:1000CA000197E9F7EAE9F0E085919591009761F0E7
:1000DA00A591B59105901590BF01F00105900D927B
:1000EA000197E1F7FB01F0CFEFE5EDBFE4E0EEBFEA
:1000FA00C0E6D1E00C94E400EA93FA93E4B1F5B1D6
:10010A00E093A001F093A101F991E9911895AA93BE
:10011A00E881E064E7B98BE18A95F1F7E5B7EF7416
:10012A00E065E5BF8895EF7BE5BFE091A001F0911E
:10013A00A1010C94D403A6E0EADFA0E6B1E06627A9
:10014A0077270E94FF040E94D9050E94E003A0E0DD
:10015A00B0E08AEF93E40E942D05DF01CB01E0E0D5
:10016A00F0E060E874E40E947B05E0936001F0939C
:10017A0061016093620170936301E8E8F1E0FA9328
:10018A00EA93ECE8F0E0FA93EA930E94E0030E9413
:10019A00E20584E00E94CC022896A0E7B1E00E9422
:1001AA00E0030E94C604ED93FC93E1E0EA93A4E025
:1001BA000E945703A8E8B1E00E9496030895E0E878
:1001CA00EABBEBBBE0E0E7BBE8BBE4BBE5BBE1BBFA
:1001DA00E2BBE3BFE2BFECBFEFBDEEBDEDBDECBDE0
:1001EA00E7BDE6BDEBBDEABDE9BDE8BDE2BDE5BDE3
:1001FA00E4BDE3BDE9BFE5BFE4BFEAB9E0E8E8B9B9
:10020A00E0E4E7B9ECE8E6B9E0E0E0BFEDB9E6BF63
:10021A000E943E04E0E0EA93E1E0EA93A0E00E9453
:10022A000003A4E10E94A7037894E0E0EA93A0E027
:10023A000E945703E0E0EA93A1E00E945703E7E136
:10024A00EA93EBE3EA93ABE30E941903E3E0EA9350
:10025A00EFE1EA93ECE0EA93A4E10E942603A4E624
:10026A00B0E00E948F0467DFA0EDB7E00E948F0420
:10027A00FACFFFCFBA93AA93A991B991EE27FF2794
:10028A006D91662311F03196FBCF0895BA93AA9324
:10029A00AA27BB27E991F9910590002011F0119640
:1002AA00FBCFFD010895BA93AA931A930A93AA81E0
:1002BA00BB8112960E94D505309759F1AA81BB815C
:1002CA0014960E94D5058F01309761F00230E0E064
:1002DA001E0798F0F80131978F01AA81BB81149605
:1002EA00ED93FC93AA81BB811296ED91FD91319613
:1002FA00FE93EE933197AC81A083AA81BB810E94C1
:10030A00D505FF232AF0ED91FD913196FE93EE93E8
:10031A0006C0AA81BB81EFEFFFEFED93FC93198131
:10032A00088125960895BA93AA9326970E94E7050D
:10033A0010E0AC85BD85E0E0F0E0ED93FC93EA893E
:10034A00FB893196EA8BFB8B3197E4912E2FE030B3
:10035A0009F415C1E12FE03039F4253211F411E026
:10036A0002C00E94E9030AC1E130A9F4253219F456
:10037A000E94E90302C112E040E000E02D3211F4CC
:10038A0001E0FCC02B3211F44BE2F8C0203211F428
:10039A0040E2F4C002C0E23039F450E013E0203306
:1003AA0011F40068EBC003C0E33009F0E7C0203362
:1003BA0010F02A3308F007C0AAE05A9F502DE22F06
:1003CA00E0535E0FDBC0E22FE33649F40E94F003EC
:1003DA00E889F989A481AA930E94F603CEC0E3377B
:1003EA0041F40E94F0030E94FC030E943F011E2F69
:1003FA000AC0E03761F40E94F0030E94FC030E94E5
:10040A004B011E2F086002600F7730E034C0E436DB
:10041A0011F0E93611F4046002C0E53731F4E4E57D
:10042A00F0E0EE83FF8315E00CC0E83511F40860B4
:10043A0003C0E83709F0A1C0EEE5F0E0EE83FF83E0
:10044A0014E002FF14C00E94F0030E940604AB8568
:10045A00AA233AF4EA85FB850E94C405EA87FB874A
:10046A004DE2403011F01F5F01C00B7F04C00E94B3
:10047A00F0030E94060400FD11C0151778F407FF67
:10048A0008C002FF04C00B7F242F115001C020E3D3
:10049A0001C020E20E94E9035150EFCF312F01FF42
:1004AA0017C03030A1F003FF06C0EE81FF8125910D
:1004BA00EE83FF8305C0AE81BF812D91AE83BF83DA
:1004CA000E94E903503009F051503150EACF4BC035
:1004DA0020E3EE81FF810E94DE05E887F987EE813D
:1004EA00FF813296EE83FF83E885F985AA85BB856D
:1004FA00AE17BF0750F02F5FA885B985EA85FB853F
:10050A00EA1BFB0BEA87FB87EFCF2A3328F003FFAE
:10051A0002C0295F01C0295D04FD1AC0213320F4FD
:10052A00A885B985119709F409C0531710F000FF7F
:10053A0001C013C020E207FF0BC020E3006102FFE5
:10054A0007C00B7F4A930E94F603503009F05150BE
:10055A000E94E903503009F051503150A885B985FD
:10056A00129708F0B5CF00FF08C0503031F0515053
:10057A00E0E2EA930E94F603F8CF10E0E0CEAC8501
:10058A00BD850E94D5050E94EE0564960895FF92E6
:10059A00F82E26970E94E9050E940E04309719F456
:1005AA00EFEFFFEF23C0DE0116960E94C0058D0112
:1005BA000E940E04EE83FF83E0E0E887E987DE010C
:1005CA001A960E94C0050E94D505FA93EA931A93D7
:1005DA000A93E8E5F1E0FA93EA93DE011A96A3DEBC
:1005EA009F01AE81BF81E0E0EC93F9010E94F00522
:1005FA002A96FF900895AA93EA81E370EA83E98133
:10060A00E03019F0EA81E061EA83E881E03019F02C
:10061A00EA81E068EA830E941504A7E00E94770451
:10062A00AA810E941A048CC0AA930E941504A0E011
:10063A000E941E040E9424040E942A040E941A0492
:10064A007FC0AA930E941504A3E00E947704AB819D
:10065A000E942A040E9424040E941E040E941A0472
:10066A0024960895AA93E5B3EF70AE2FE881E07F50
:10067A00EA2BE5BB8DE08A95F1F7AA9A8DE08A9577
:10068A00F1F7AA988DE08A95F1F789C0AA93A88113
:10069A00E9DFE881E295E883A881E4DF85E88A95C5
:1006AA00F1F77DC0AA93E881F0E0EE55FE4FE081B4
:1006BA00A981AE0FEBDFE981E093A601E881E0931F
:1006CA00A70122960895A2E00E943004ACE0DEDF82
:1006DA00A1E00E943004E0E0E093A701E093A601C4
:1006EA000895AA93A881AA3031F0E091A801A091B7
:1006FA00A601AE1760F0E0E0EA93A091A701AF5F10
:10070A00A093A701CFDFA881AA3009F448C0E091DD
:10071A00A601EF5FE093A601A89AA881B7DFA8987F
:10072A003EC0BA93AA931A93A981BA81ED91A9837B
:10073A00BA831E2FE03019F0A12FD3DFF5CF18812D
:10074A0023960895AA93E4B3E06FE4BBA29AA09A11
:10075A00A19AAA98A898A998E881E093A801E058D4
:10076A00E093A401E881E054E093A501A4E1B0E09C
:10077A000E948F040E9436040E9436040E943604A6
:10078A00A0E270DF88EC90E00197F1F7A8E27EDF43
:10079A00A4E07CDFA5E87ADFA6E078DF94DF219683
:1007AA000895AA93A991EE27AA5012F0E05FFCCF10
:1007BA00A65FEA0F0895E0916001F09161016091EE
:1007CA0062017091630108952A93AD85BE85EF8514
:1007DA00F88909950895E889F9893497E88BF98B9E
:1007EA000895AD85BE85EF85F88909950895A8898C
:1007FA00B98914960E94D505EE83FF83AE81BF8125
:10080A000895A889B98914960E94D505EA87FB87B5
:10081A000895DE011C960E94C0050E94D505089520
:10082A000E944304A0ED0C9477040E9477040C9470
:10083A0052040E947704A881B4DFAE2F08950E9463
:10084A007704A981AEDFAE2F08950E947704AA81AA
:10085A00A8DFAE2F08950E944B03A3E0B0E00C94EA
:10086A008F04A0E30E94370388EC90E00197F1F728
:10087A000895929893988A9A8B9815C08B988A981B
:10088A00EE270000839B0895829B089504D08B9ADB
:10089A0002D08A9AE1E06DE007C08B9A8A9A03D067
:1008AA008A98F9DF8B986BE16A95F1F7089578E0F9
:1008BA008A98F1DF829BFECFEEDF889483990894B1
:1008CA008A9AF1DFEE1F7A9599F77A2F772311F436
:1008DA008B9801C08B9ADFDF8A98E5DF8A9ADBDF83
:1008EA008B98D9CF78E0AA0F10F48B9801C08B9A15
:1008FA00DADF8A98D0DF829BFECFCDDF8A9A7A959B
:10090A0091F78B98C8DF8A98CEDFE1E08399EE27CA
:10091A008A9AC1CF109639F080ED97E00197F1F7E6
:10092A00A8951197C9F70895552342F4503811F440
:10093A00E0FF04C03196691F791F6BF050E8572712
:10094A0011F45F9373C05F3F31F0660F000C579547
:10095A006795752F08955F9300200AF073C06CC0E5
:10096A0050E8192E1522880F991F9527550F87953C
:10097A0050E8072E0522660F771F7527550F6795D2
:10098A000895689401C0E8945F93F2DF703818F014
:10099A007F3F08F44BC056E1571BAAF451955830D3
:1009AA000EF4593030F0EFEFFFEF6FEF7FE777F992
:1009BA001AC077275523B9F0EE0FFF1F661F771F5E
:1009CA005A95D1F710C07727583028F0EF2FF62F15
:1009DA00672F5850F9CF552331F076956795F795DB
:1009EA00E7955A95D1F700200AF4CDD05F91089582
:1009FA00689401C0E894309760407040B1F00024D8
:100A0A0026F0772312F40094BED0172E7EE111202F
:100A1A0032F07A95EE0FFF1F661F111CF9CFEF2FE8
:100A2A00F62F612D5F938ADF5F910895EE27FF27E6
:100A3A00662777275F910895EFEFFFEF6FE77FEF64
:100A4A005F910895EFEFFFEF6FE77FE75F910895FA
:100A5A005F9386DF703851F3903841F3012408948C
:100A6A00791F23F41CF300203AF3ECCF0F921F9363
:100A7A002F933F934F93112722279927689FA0010D
:100A8A008F9F302D410D591F6B9F300D411D591FEE
:100A9A008E9F27D0BF9F25D06A9F23D0BE9F1DD08F
:100AAA00AF9F1BD0AE9F110D291F391F491F591F18
:100ABA00E32FF42F652F522F4F913F912F911F91C2
:100ACA000F9066232AF0550FEE1FFF1F661F02C004
:100ADA0073954BF229DF5F910895100D211D391F7F
:100AEA0002C0200D311D491F591F08955F9338DF39
:100AFA00703821F411200AF49FCFA4CF903809F45A
:100B0A0095CF01240894970B1BF4D4F30020F3CF5C
:100B1A00792F1F932F933F934F9311241127222745
:100B2A0033274427552790E2AE17BF0786074107A8
:100B3A0030F0AE1BBF0B860B410B089401C08894A2
:100B4A00551F221F331F111CAA1FBB1F881F441FBA
:100B5A009A9551F7F901612D4F913F912F911F916C
:100B6A00662332F0550FEE1FFF1F661F7A9543F278
:100B7A00DBDE5F9108950024AF0DB01D0895F19555
:100B8A00E195F0400895F09560957095E195FF4FD5
:100B9A006F4F7F4F08956F2F660F660B762F08955C
:100BAA00ED91FC9111970895ED93FD936D937C93CC
:100BBA0008950590F491E02D08957A936A93FA9333
:100BCA00EA9308955A934A933A932A931A930A9363
:100BDA0008955D814C813B812A811981088108959C
:00000001FF
