:080000000C94D3000C940000E5
:100008000C9400000C9400000C9400000C94000068
:100018000C9400000C9400000C9400000C94000058
:100028000C9400000C9400010C9400000C94320114
:100038000C9497050C9400000C9400000C9400009C
:100048000C9400000C9400000C94000000000000C8
:1000580000000000050608090B0C3D3E202020206A
:10006800434149204441542047494F202020002043
:10007800202020202043414920444154204E47411C
:10008800592020002020202020204341492044419D
:10009800542047494F202020003D3E202020204367
:1000A800414920444154204E4741592020002020F6
:1000B8002020434149204441542047494F202020D3
:1000C8002020002020202043414920444154204E34
:1000D8004741592020202000202020202025322E92
:1000E80032753A25322E32753A25322E3275202055
:1000F8002020202000202020202025322E32752F7D
:1001080025322E32752F25322E32752020202020C0
:100118002020006E6869657420646F3A2564006E5B
:100128006869657420646F3A256420002020646F34
:1001380020616E20686F63207068616E2032000055
:100148002D4E414E000080C001002D4E414E004909
:100158004E4600000100020054000600040056004C
:10016800060017025C0015006001620015007501A9
:10017800770015008A018C0015009F01A100150069
:10018800B401B6001500C901CB001300DE0134012B
:10019800020053024E0101005A0250010000F89477
:1001A800EE27ECBBF1E0FBBFEBBFE5BF8DE0A2E0C3
:1001B800BB27ED938A95E9F780E094E0A0E6ED93FC
:1001C8000197E9F7ECE5F1E085919591009761F0E9
:1001D800A591B59105901590BF01F00105900D927C
:1001E8000197E1F7FB01F0CFEFE5EDBFE4E0EEBFEB
:1001F800C0E6D1E00C94ED05EA93FA93EFB7EA93E1
:100208001A930A931BB10CB1E12FEC7189F4E52D17
:100218005394F0E0EF50FE4F0083E8E0E51509F451
:1002280055247394E8E0E71519F47724689420F8C6
:100238000991199125C01A937720F1F3E42D43947D
:10024800F0E0EF50FE4F1081E8E0E41509F4442493
:10025800F8947A947894E12F19910895EA93FA938F
:10026800EFB7EA93882061F08A94E92D9394F0E03F
:10027800E750FE4FE081ECB9E8E0E91509F499246C
:10028800E991EFBFF991E9911895AA93E8E0E8158B
:10029800E9F3F894882011F45D990DC0E62D639474
:1002A800F0E0E750FE4FA881A083E8E0E61509F4E6
:1002B8006624839402C0E881ECB9789451C4E0E0E4
:1002C800E71558F5E0911502F0E0EF5FFD4FFF9359
:1002D800EF93B1DFAF91BF91EC93E09115020E94CB
:1002E800570CA03441F4E0E4E0930102E0E0E0932D
:1002F8001502CC24DD24E0911502EF5FE09315028E
:10030800A0911502A23020F0E0910202EA1708F449
:1003180004C00E945C0CCE0EDF1EE0910202F0E0E9
:100328003296A0911502B0E0EA17FB0709F0A5C0C4
:10033800A0910102A034A1F4E0911502F0E03297F7
:10034800EF5FFD4FA081B0E0E0E0F1E00E947210A5
:10035800DF010E945C0CEA0FFB1FEC15FD0509F09C
:1003680087C0A0910302A13071F5E3E0E093160283
:10037800E0910202A0911602AE1710F50E94650CDA
:10038800A13009F4949A0E94650CA23009F4959A58
:100398000E94650CA33009F4969A0E94650CA4305B
:1003A80009F4979A0E94650CAF3F21F4979A969AA0
:1003B800959A949AE0911602EF5FE0931602D8CFCF
:1003C8000E94680C50C0E0910302E03091F5E3E030
:1003D800E0931602E0910202A0911602AE1730F5E2
:1003E800E0911602F0E0EF5FFD4FE081E03021F48C
:1003F80097989698959894980E94650CA13009F45E
:1004080094980E94650CA23009F495980E94650C96
:10041800A33009F496980E94650CA43009F49798C3
:10042800E0911602EF5FE0931602D4CF0E94680CA9
:100438001AC0A0910302A23019F40E94680C13C0DC
:10044800A0910302A330A1F4A0E41FDFA4E01DDF04
:10045800A09103021ADFAA2D18DFE0910302F0E051
:100468003496EA0DFB1D6F01A0E00FDFAC2D0DDF08
:10047800CC24DD24E0E0E09315020895A0912B023E
:10048800A53610F0E7E105C0A0912B02A83118F0BD
:10049800E0E0E0932B02A0912C02A53610F0EBE3EC
:1004A80005C0A0912C02AC3318F0E0E0E0932C02D8
:1004B800A0912D02A53610F0EBE305C0A0912D0206
:1004C800AC3318F0E0E0E0932D02A0912F02A030A9
:1004D80011F0A53630F1A0913002A13061F0A330BF
:1004E80051F0A53041F0A73031F0A83021F0AA3002
:1004F80011F0AC3011F4EFE112C0A0913002A43039
:1005080031F0A63021F0A93011F0AB3011F4EEE152
:1005180006C00E94A40C11F4EDE101C0ECE1E093E7
:100528002F02A0913002AD3010F0A43608F002C0BE
:10053800E1E007C0A0913002A53610F4A03019F40C
:10054800ECE0E0933002A0913002A13061F0A330DA
:1005580051F0A53041F0A73031F0A83021F0AA3091
:1005680011F0AC3041F4A0912F02A03218F0E1E074
:10057800E0932F0224C0A0913002A43031F0A630BD
:1005880021F0A93011F0AB3041F4A0912F02AF3126
:1005980018F0E1E0E0932F0212C00E94A40C41F48D
:1005A800A0912F02AE3118F0E1E0E0932F0207C0CE
:1005B800A0912F02AD3118F0E1E0E0932F02A09155
:1005C8003102A73910F0E3E605C0A0913102A43644
:1005D80018F0E0E0E0933102089526970E942E116A
:1005E80020E030E000E0CB9906C0CA9904C0C99B5E
:1005F80002C0C89901C0A9C011E0103009F46BC04D
:100608005EDECA990AC0CB9B08C0C99B06C0C89BBE
:1006180004C0A0915002A03009F00AC0E1E0E093C4
:100628005002123011F4115003C0113009F412E0D5
:10063800CA9B03C0E0E0E0935002CA9B0AC0CB9972
:1006480008C0C99B06C0C89B04C0A0914F02A03037
:1006580009F00AC0E1E0E0934F02113011F41F5F86
:1006680003C0123009F411E0CB9B03C0E0E0E09333
:100678004F02E12FF0E0E130A0E0FA0749F40E94D0
:10068800AD0CA0E6B1E00E94B20CA5E7B1E00CC049
:10069800E230A0E0FA0751F40E94AD0CAAE8B1E0FC
:1006A8000E94B20CAFE9B1E00E94F60ACB9B06C0EB
:1006B800CA9B04C0C99902C0C89B01C001C010E010
:1006C800CB9906C0CA9B04C0C99902C0C89901C089
:1006D80001C001C092CF1030C1F1DF98E0E0E09393
:1006E8001D021130B1F4EBE2F2E0FA93EA93ECE286
:1006F800F2E0FA93EA93ADE2B2E00E94450A0E9462
:10070800AD0CA4EBB1E00E94F60A0E94B90C0E945D
:10071800C40C1230D1F4EEE2F2E0FA93EA93EFE27D
:10072800F2E0FA93EA93E0E3F2E0FA93EA93A1E3C2
:10073800B2E00E946B0A0E94AD0CA9ECB1E00E94E5
:10074800F60A0E94D20C0E94C40C103009F4ACC105
:10075800B6DDCB9B0AC0CA9B08C0C99B06C0C89916
:1007680004C0A0914E02A03009F010C0E0911D0213
:10077800EF5FE0931D02A0911D02A63018F0E0E0A3
:10078800E0931D020E94DD0CE0934E02C89B03C05B
:10079800E0E0E0934E02CB9B0AC0CA9B08C0C9990F
:1007A80006C0C89B04C0A0914D02A03009F010C03B
:1007B800E0911D02E150E0931D02A0911D02A630B8
:1007C80018F0E5E0E0931D020E94DD0CE0934D0275
:1007D800C99B03C0E0E0E0934D02CB990AC0CA9BD5
:1007E80008C0C99B06C0C89B04C0A0914F02A03096
:1007F80009F086C00F5F1130C9F50E94E90C31F489
:10080800E0912B02E65FE0932B022FC0E130A0E0DD
:10081800FA0731F4E0912B02EF5FE0932B0225C039
:10082800E230A0E0FA0731F4E0912C02E65FE093B1
:100838002C021BC0E330A0E0FA0731F4E0912C024F
:10084800EF5FE0932C0211C0E430A0E0FA0721F436
:10085800E0912D02E65F07C0E530A0E0FA0729F431
:10086800E0912D02EF5FE0932D023AC01230C1F5FE
:100878000E94E90C31F4E0912F02E65FE0932F0229
:100888002FC0E130A0E0FA0731F4E0912F02EF5FCA
:10089800E0932F0225C0E230A0E0FA0731F4E0919E
:1008A8003002E65FE09330021BC0E330A0E0FA07B5
:1008B80031F4E0913002EF5FE093300211C0E43090
:1008C800A0E0FA0721F4E0913102E65F07C0E530C5
:1008D800A0E0FA0729F4E0913102EF5FE0933102DA
:1008E800E1E0E0934F02CADD113019F40E94B90C1F
:1008F80004C0123029F40E94D20CEA930E94EE0C34
:10090800CB9B03C0E0E0E0934F02CB9B0AC0CA999F
:1009180008C0C99B06C0C89B04C0A0915002A03063
:1009280009F084C01130C1F50E94E90C31F4E0915E
:100938002B02EA50E0932B022FC0E130A0E0FA0727
:1009480031F4E0912B02E150E0932B0225C0E23014
:10095800A0E0FA0731F4E0912C02EA50E0932C026F
:100968001BC0E330A0E0FA0731F4E0912C02E1501B
:10097800E0932C0211C0E430A0E0FA0721F4E091E2
:100988002D02EA5007C0E530A0E0FA0729F4E0910B
:100998002D02E150E0932D021230C1F50E94E90CBE
:1009A80031F4E0912F02EA50E0932F022FC0E1309A
:1009B800A0E0FA0731F4E0912F02E150E0932F0212
:1009C80025C0E230A0E0FA0731F4E0913002EA50A5
:1009D800E09330021BC0E330A0E0FA0731F4E09165
:1009E8003002E150E093300211C0E430A0E0FA0791
:1009F80021F4E0913102EA5007C0E530A0E0FA079F
:100A080029F4E0913102E150E0933102E1E0E09312
:100A1800500234DD113019F40E94B90C04C01230B0
:100A280029F40E94D20CEA930E94EE0CCA9B03C0E0
:100A3800E0E0E0935002CB9B06C0CA9B04C0C99972
:100A480002C0C89B01C021C0ACE00E94AB0A1130B3
:100A580059F4E0912B02EA93E0912C02EA93A091D9
:100A68002D020E945E0A0FC0123069F4E0912E0236
:100A7800EA93E0912F02EA93E0913002EA93A09181
:100A880031020E94860A10E0DF9AC99906C0CA9905
:100A980004C0C89B02C0CB9901C005C0ACE00E944D
:100AA800AB0A10E0DF9A51CE0E9435112C960895BA
:100AB800AA93EA81E03029F40E94FD0CE0EEF0E010
:100AC80004C00E94FD0CEDEFF0E0FA93EA93E9858B
:100AD8000E94020DEC850E94020DEF850E94020D16
:100AE8008CE00E94F8096096E981EA93A9810E9446
:100AF800080D0C945C0ABA93AA931A930A9300E01F
:100B080010E0EA81FB810E171F074CF4D8DB65DD86
:100B1800A1E0B0E00E949C0E0F5F1F4FF2CF198139
:100B2800088124960895EA93FA93E4B1F5B1E09325
:100B38005102F0935202F991E9911895AA93E8812C
:100B4800E064E7B98BE18A95F1F7E5B7EF74E06502
:100B5800E5BF8895EF7BE5BFE0915102F091520225
:100B680021960895A6E0EADF5F010E940E0DA0E03D
:100B7800B0E08AEF9EE30E949C0F0E94DB0E5F01AB
:100B8800E9E0F0E0EA15FB052CF40E94FD0CEBE12E
:100B9800F1E004C00E94FD0CE7E2F1E0FA93EA9369
:100BA800F5010E9465100E94131184E00E94F80963
:100BB8002896E5E2F2E0A082B1820E94AD0CAEED8B
:100BC800B1E00E94F60AE4E0EA93A1E00E94080D71
:100BD8000895E0E8EABBEBBBE0E0E7BBE8BBE4BBB9
:100BE800E5BBE1BBE2BBE3BFE2BFECBFEFBDEEBDDF
:100BF800EDBDECBDE7BDE6BDEBBDEABDE9BDE8BDB9
:100C0800E2BDE5BDE4BDE3BDE9BFE5BFE4BFEBB9C7
:100C1800E8EDEAB9E6E8E0BDE0E0E0BDE3E3E9B924
:100C2800E0E8E8B9E0E4E7B9ECE8E6B9E0E0E0BF1D
:100C3800EDB9E6BF0E944B0EE0E0EA93E1E0EA93EB
:100C4800A0E00E942C0AA4E10E94070B78948F9AD6
:100C58008E9A8D9A8C9A0E94AD0CE0E0EA93A1E0FE
:100C68000E94B70AE7E1EA93EBE3EA93ABE30E9459
:100C78005E0AE3E0EA93EFE1EA93ECE0EA93A4E1A9
:100C88000E94860AA4E6B0E00E949C0EE0E0E09391
:100C98001E02A0911E02AF3008F045C0E2E3F2E068
:100CA800FA93EA93E3E3F2E0FA93EA93A4E3B2E077
:100CB8000E94450AA4E6B0E01EDFE5E3F2E0FA93FD
:100CC800EA93E6E3F2E0FA93EA93E7E3F2E0FA93D1
:100CD800EA93A8E3B2E00E946B0AE0913202EA9339
:100CE800E0913302EA93E0913402EA93E0E0EA9378
:100CF800EA93A0E0DDDEE0913602EA93E091370264
:100D0800EA93E0913802EA93E1E0EA93E0E0EA93BB
:100D1800A1E0CEDEA4E6B0E0EEDEE0911E02EF5FD9
:100D2800E0931E02B6CFE0E0E0931E02A0911E02FF
:100D3800A53050F417DFAAEFB0E0DDDEE0911E0227
:100D4800EF5FE0931E02F2CF0E9463019FCFFFCFB7
:100D5800BA93AA93E991F991A991B991CD01059016
:100D68000D920020E1F7FC010895BA93AA93A99186
:100D7800B991EE27FF276D91662311F03196FBCFCD
:100D88000895BA93AA93AA27BB27E991F9910590E8
:100D9800002011F01196FBCFFD010895BA93AA9394
:100DA8001A930A93AA81BB8112960E94FA1030976F
:100DB80029F1AA81BB8114960E94FA108F013097FD
:100DC80061F00230E0E01E0780F0F80131978F01F2
:100DD800AA81BB811496ED93FC93AA81BB811296DC
:100DE8000E94130D3197AC81A083AA81BB810E9418
:100DF800FA10FF2312F00E94130D06C0AA81BB81CE
:100E0800EFEFFFEFED93FC93198108812596089584
:100E18000E94190DE0E8EA83EFE3EB830E943011AA
:100E2800EE85FF85EF3FAFEFFA0749F4E885F985CE
:100E3800FA93EA93A8E4B1E00E94AC06B7C0EF3F8A
:100E4800AFE7FA0749F4E885F985FA93EA93A9E444
:100E5800B1E00E94AC06AAC0AB85A73010F0E6E06E
:100E6800EB871B85E12F1150E03019F00E94200D0F
:100E7800F9CFEC85FD856E857F850E942A1121F4C6
:100E880030E00E94200D2DC03B850E942F0D09F0F7
:100E980008F40BC00E94200D0E942F0D28F00E941C
:100EA8003A0D0E943F0DF8CF0DC00E942F0D40F45F
:100EB8000E943A0D0E944B0D0E94520D3150F5CF01
:100EC8000E94200DEC85FD856E857F850E94570D5B
:100ED8000E94520D0E942F0D20F00E943A0D0E9490
:100EE8003F0D10E0EB85E117A8F1AC81BD818E8143
:100EF8009F810E945E0D0E94570DDF01CB010E9469
:100F0800670BEC83FD836E837F830E943A0D0E94FA
:100F1800EA0F0E94D90E0E2F0E94650D0E946C0DDB
:100F2800FF27662777270E94120FAC81BD818E812B
:100F38009F810E949C0F0E943A0D0E94710D0E9491
:100F4800520DE12F1F5FE03069F60E94650DEEE259
:100F5800EC93C8CF0E94760D3197AA85A0833030D4
:100F68002CF43195A885B985EDE203C0A885B9852B
:100F7800EBE2EC930E94760D0E94760D3197BF014B
:100F8800A32FEAE00E948510E05DDB01EC930E944C
:100F9800760D3197BF01A32FEAE00E94C210E05DF1
:100FA800DB01EC93A885B985E0E0EC930E9437114A
:100FB80060960895BA93AA93EF9761970E942E11AD
:100FC80010E0FE01E85AFF4F0190F081E02DE8871C
:100FD800F987FE01EA5AFF4F0190F081E02DEE8378
:100FE800FF83AE81BF81E0E0F0E0ED93FC93DE018A
:100FF800A45ABF4F0E94130D3197E4912E2FE03071
:1010080009F4E9C1E12FE03039F4253211F411E097
:1010180002C00E947C0DDEC1E130C1F4253219F412
:101028000E947C0DD6C112E0E0E0ED8B00E02D328D
:1010380011F401E0CFC12B3219F4EBE2ED8BCAC1F8
:10104800203219F4E0E2ED8BC5C102C0E23039F478
:1010580050E013E0203311F40068BCC102C0E33053
:1010680091F4203310F02A3308F007C0AAE05A9F01
:10107800502DE22FE0535E0FADC140E02E3211F447
:1010880014E0A8C10FC0E43099F4203310F02A33DB
:1010980008F008C00062AAE04A9F402DE22FE05302
:1010A8004E0F98C12C3619F4026015E093C103C0A5
:1010B800E53009F08FC1E22FE33659F40E94830D21
:1010C8000E948A0D0E94830DA481AA930E94910D0B
:1010D80080C1E53411F0E53609F403C0E63609F0BD
:1010E80048C0FE017696EE87FF870E94970D0E9402
:1010F800FE100E949E0D0E94A30DAD85AA2332F01A
:10110800AD89AB3259F0A03281F017C00E94A50D0D
:101118000E94A60E0E949E0DEDE2ED8B07FF05C012
:10112800ED89EA930E94910D08C0EE85FF853196FE
:10113800EE87FF873197AD89A08305FF46E0263605
:1011480051F40E94A50D0E9413114A93AB89BC89E2
:101158000E947E0B09C00E94A50D0E9413114A939C
:101168002A93AC89BD8954DEFE0176960E94AA0DA9
:101178001EC0E33739F40E94A30D0E94B20D0E94ED
:10118800AA0D0EC0E037C1F40E94A30D0E94B20D53
:10119800EE87FF87AE85BF850E94C5061E2F0860B3
:1011A8000F77403011F0411708F001C0142F40E0CC
:1011B800E0E0EC8B30E06DC0E43611F0E93611F474
:1011C800046002C0E537A1F4EAE0EC8B01FF08C037
:1011D800E0E0FAEC6AE97BE30E94B70D1AE022C06E
:1011E800E0E1F7E260E070E00E94B70D15E01AC098
:1011F800E83511F4086003C0E83709F0EAC0E0E117
:10120800EC8B01FF08C0E0E0F0E060E070E10E94D4
:10121800B70D18E007C0E0E0F0E160E070E00E9480
:10122800B70D14E0403011F00F7701C041E001FF25
:1012380008C00E94A30D0E94970D14960E94FE10EC
:101248000FC002FF07C00E94A30D0E94B20D0E94AA
:10125800651006C00E94A30D0E94B20D662777276D
:10126800EA87FB876C877D8702FF12C0AD85AA23BA
:1012780042F40E94A50D0E9457100E949E0DEDE2B7
:10128800ED8BED89E03019F01F5F4F5F01C00B7FD8
:10129800342F00FD14C0151710F4351708F00FC0CF
:1012A80007FF08C002FF04C00B7F2D89115001C041
:1012B80020E301C020E20E947C0D5150ECCF1417AE
:1012C80090F4006102FF06C00E94BC0D09F0515065
:1012D80011504150E0E3EA930E94910D503009F01B
:1012E80051504150ECCF312FEC89E030B9F4303017
:1012F800A1F003FF06C0EE85FF852591EE87FF87E5
:1013080005C0AE85BF852D91AE87BF870E947C0D35
:10131800503009F051503150EACF51C00E94CE0DE3
:101328000E949D102E2F2A3030F003FF02C0295C46
:1013380001C0295A01C0205D04FD21C0213360F499
:10134800A889B9898A899B89A130E0E0BE07E0E0D5
:101358008E07E0E09E0709F40BC0431740F45317CB
:1013680010F000FF01C010C020E207FF08C020E312
:10137800006102FF04C00E94BC0D09F051500E9498
:101388007C0D503009F0515031500E94CE0D0E9412
:10139800DC100E949E0DEC89A889B9898A899B89ED
:1013A800FF27662777270E949D100E94B70DE889BE
:1013B800F9896A897B890E942A1109F0AFCF00FF59
:1013C80008C0503031F05150E0E2EA930E94910D8C
:1013D800F8CF10E00CCEAE81BF810E94FA100E94B7
:1013E8003511EF966F960895FF92F82E26970E9472
:1013F80030110E94D70D309719F4EFEFFFEF23C09B
:10140800DE0116960E944F108D010E94D70DEE83C3
:10141800FF83E0E0E887E987DE011A960E944F1013
:101428000E94FA10FA93EA931A930A93E2EDF6E00F
:10143800FA93EA93DE011A96BDDD9F01AE81BF8162
:10144800E0E0EC93F9010E9437112A96FF90089585
:10145800AA93EA81E370EA83E981E03019F0EA812E
:10146800E061EA83E881E03019F0EA81E068EA8324
:101478000E94DE0DA7E00E94840EAA810E94E30D5F
:10148800C0C0BA93AA930E94DE0DA0E00E94E30DAB
:101498000E94E70D0E94EF0D0E94F60D0E94FC0DC0
:1014A800AE2F0E94400CAC81BD81EC930E945F0E70
:1014B80026960895AA930E94DE0DA0E00E94020ECF
:1014C8000E94080E0E940E0E0E94E30D9AC0BA9365
:1014D800AA930E94DE0DA3E00E94E30D0E94E70D8F
:1014E800AE81BF81EC930E94F60DAC81BD81EC9377
:1014F8000E94F60D0E94FC0D0E94EF0D0E945F0EE7
:1015080028960895AA930E94DE0DA3E00E94840EF7
:10151800AB810E940E0E0E94080E0E94020E0E94CD
:10152800E30D0C947C0BAA93E5B3EF70AE2FE88122
:10153800E07FEA2BE5BB8DE08A95F1F7AA9A8DE06A
:101548008A95F1F7AA988DE08A95F1F789C0AA9350
:10155800A881E9DFE881E295E883A881E4DF85E8EE
:101568008A95F1F77DC0AA93E881F0E0ED5AFD4F26
:10157800E081A981AE0FEBDFE981E0935702E881B2
:10158800E093580222960895A2E00E94140EACE05F
:10159800DEDFA1E00E94140EE0E0E0935802E09341
:1015A80057020895AA93A881AA3031F0E091590210
:1015B800A0915702AE1760F0E0E0EA93A0915802BC
:1015C800AF5FA0935802CFDFA881AA3009F448C0C2
:1015D800E0915702EF5FE0935702A89AA881B7DF1E
:1015E800A8983EC0BA93AA931A93A981BA81ED919B
:1015F800A983BA831E2FE03019F0A12FD3DFF5CFCE
:10160800188123960895AA93E4B3E06FE4BBA29AE5
:10161800A09AA19AAA98A898A998E881E093590253
:10162800E058E0935502E881E054E0935602A4E1C3
:10163800B0E00E949C0E0E941A0E0E941A0E0E9490
:101648001A0EA0E270DF88EC90E00197F1F7A8E2AB
:101658007EDFA4E07CDFA5E87ADFA6E078DF94DF10
:10166800219608950E9418117B816A81F981E88189
:1016780077FB770F67FD7160972F9E5781F078F0A1
:10168800983190F4AA27BB27882708948795B7959F
:10169800A7959A95D1F7EA23FB23682305C0E89418
:1016A8007727EE27FF2766276F77769508F4606817
:1016B80077F9A991B99189919991EA17FB07680778
:1016C800790797FB08950E9418110E9409110E943A
:1016D800360B0E940E1119F40E94041109C0E6F796
:1016E8000E940411A0E0B0E080E89FE30E94450F4B
:1016F800249608950E94190DE0E0EA83EFE3EB8356
:101708001A930A93EB85FC85EF3FAFEFFA0739F49C
:101718000E94220EA2E5B1E00E94AC06A9C0EF3FEC
:10172800AFE7FA0739F40E94220EA3E5B1E00E9460
:10173800AC069EC0AC85AA2362F4E985FA856B8560
:101748007C850E94A60E0E94270E0E942C0EEDE2B8
:10175800EC93A885A73010F0E6E0E8871885E12F1C
:101768001150E03039F00E94330E0E945E0D0E9445
:10177800380EF5CF0E943D0E0E944C0F0E94270E96
:1017880010E0E0E0F0E060E87FE30E94380E0E949D
:101798003D0E0E942F1088F00E94330E0E944B0DC0
:1017A8000E94380E1F5F173238F00E94220EA7E5FC
:1017B800B1E00E94AC065CC0EACF103029F40E9468
:1017C8002C0EE0E3EC9329C0E12F1150E03029F111
:1017D8000E94330E0E945E0D0E94570DDF01CB015F
:1017E8000E94670B0E94380E0E943D0E0E94EA0F6D
:1017F8000E94D90E0E2F0E942C0E0E946C0DF0E054
:101808000E94330E0E940E0D0E949C0F0E94460EED
:101818000E94710D0E94270ED7CFE885E03021F194
:101828000E942C0EEEE2EC93E885E150E887EF5F2A
:10183800D9F00E94460E0E944B0D0E94270EE985A2
:10184800FA856B857C850E94D90E0E2F0E942C0E7E
:101858000E946C0DF0E00E94460E0E940E0D0E9440
:10186800710D0E94270EE0CFAE81BF81E0E0EC93BE
:10187800198108812D960895AA93E881E295EF7061
:10188800AE2FAA0FAA0FEA0FEE0FA991AF70EA0FB9
:101898000895AA93A991EE27AA5012F0E05FFCCF11
:1018A800A65FEA0F0895F0E0EF5FFD4FA08108956D
:1018B800E0911502F0E03197EF5FFD4FE081F0E035
:1018C8000895E0911602EFCFA0E40E944901A7E035
:1018D8000E944901A09103020E944901A0E0849955
:1018E800A1E00E944901A0E08599A1E00E94490178
:1018F800A0E08699A1E00E944901A0E08799A1E0B3
:101908000E944901E0910302F0E03796DF01E0E030
:101918008499E1E0F0E0AE0FBF1FE0E08599E1E0D7
:10192800F0E0AE0FBF1FE0E08699E1E0F0E0AE0F17
:10193800BF1FE0E08799E1E0F0E0EA0FFB1F0895A0
:10194800A0913102BB27E4E0F0E00E94CE1030976E
:101958000895E0E0EA93A0E00C94B70A0E94F60A22
:10196800E0E0EA93A1E00C94B70AE0912B02EA9335
:10197800E0912C02EA93E0912D02EA93E0E00895C9
:10198800EA93E0E0EA93A1E00E945C05E5E0EA93CF
:10199800A1E00E94B70AAFE00C94AB0AE0912F02D5
:1019A800EA93E0913002EA93E0913102EA93E1E0B0
:1019B8000895E0911D02F0E0E95EFD4FE081EA93B1
:1019C800A1E00E94B70AE1E00895E0911D02F0E06D
:1019D80030970895E0E0EA93A1E00E945C05E09169
:1019E8001D02F0E0E95EFD4FE081EA93A1E00C946E
:1019F800B70AE9E3F2E0FA93EA930895FF27662726
:101A080077270E94131108950E94B70AA9E3B2E04C
:101A18000C94F60A0E9465100E94120F0895ED9129
:101A2800FD913196FE93EE930895BA93AA93249765
:101A3800E0E0E883E9830895AC81BD818E819F81D0
:101A4800E0E0F0E060E271E40E949C0FEC83FD832B
:101A58006E837F830895EC81FD816E817F81AC85E3
:101A6800BD858E859F850E942F100895AC85BD8504
:101A78008E859F850895EDECFCEC6CEC7DE30E946F
:101A88009C0FEC87FD876E877F873F5F0895E0E0B6
:101A9800F0E060E271E40E949C0F0895EC87FD87F6
:101AA8006E877F870895A0E0B0E080E09FE30E9402
:101AB8004C0F0895EDECFCEC6CEC7DE30E949C0F60
:101AC8000895A885B9851196A887B98711970895AB
:101AD800E02FE05DEC93E02F08950E941D110E9415
:101AE800450F0895E885F9853196E887F9870895BF
:101AF8002A93AF81B885E985FA8509950895FE018D
:101B0800E65AFF4F0190F081E02D08953497DE01E9
:101B1800A65ABF4FED93FC930895AF81B885E98528
:101B2800FA8509950895DE01A65ABF4F0D90BC911C
:101B3800A02D0895EA87FB876C877D870895DFDFEE
:101B4800E5CFEA85FB856C857D850895EE87FF875F
:101B5800AE85BF850E94B9061E2F0895E4DF14964E
:101B68000E94FA100895E88BF98B6A8B7B8B089595
:101B78000B7FED89EA93DE01A95ABF4F0D90BC9106
:101B8800A02DFE01E75AFF4F0190F081E02D099545
:101B980050300895E889F9896A897B89AA85BB85C7
:101BA8008C859D850895DE011C960E944F100E9429
:101BB800FA1008950E94500EA0ED0C94840E0E9415
:101BC800840E0C945F0E0E94500EA1ED0E94840EAC
:101BD800A1E00C94690EAE2F0E94400CA881B98137
:101BE800EC930895A1E00E94690EAE2F0C94400C6E
:101BF800AA81BB81EC93A0E00C94690E0E94840E2C
:101C0800A88147DEAE2F08950E94840EA98141DE87
:101C1800AE2F08950E94840EAA813BDEAE2F089550
:101C28000E94AB0AA3E0B0E00C949C0EA0E30E94D3
:101C3800970A88EC90E00197F1F70895EE81FF810B
:101C4800FA93EA930895E987FA876B877C87089562
:101C5800AE81BF811196AE83BF8311970895AA8183
:101C6800BB818C819D810895EA83FB836C837D838E
:101C78000895EA81FB816C817D81A985BA858B8570
:101C88009C850895A985BA858B859C850895929829
:101C980093988A9A8B9815C08B988A98EE2700009B
:101CA800839B0895829B089504D08B9A02D08A9AC8
:101CB800E1E06DE007C08B9A8A9A03D08A98F9DF31
:101CC8008B986BE16A95F1F7089578E08A98F1DFCF
:101CD800829BFECFEEDF8894839908948A9AF1DF7D
:101CE800EE1F7A9599F77A2F772311F48B9801C014
:101CF8008B9ADFDF8A98E5DF8A9ADBDF8B98D9CF6A
:101D080078E0AA0F10F48B9801C08B9ADADF8A98D2
:101D1800D0DF829BFECFCDDF8A9A7A9591F78B9898
:101D2800C8DF8A98CEDFE1E08399EE278A9AC1CF8F
:101D3800109639F080ED97E00197F1F7A895119783
:101D4800C9F7089530976040704009F070580895B9
:101D5800552342F4503811F4E0FF04C03196691F4E
:101D6800791F6BF050E8572711F45F93CFC05F3F9E
:101D780031F0660F000C57956795752F08955F939E
:101D880000200AF0CFC0C8C050E8192E1522880FCD
:101D9800991F9527550F879550E8072E0522660F3E
:101DA800771F7527550F67950895689401C0E894C3
:101DB8005F93F2DF703818F07F3F08F4A7C056E150
:101DC800571BAAF4519558300EF4593030F0EFEF04
:101DD800FFEF6FEF7FE777F91AC077275523B9F040
:101DE800EE0FFF1F661F771F5A95D1F710C0772790
:101DF800583028F0EF2FF62F672F5850F9CF55237A
:101E080031F076956795F795E7955A95D1F70020C3
:101E18000AF449D15F910895689401C0E894309715
:101E280060407040B1F0002426F0772312F400944B
:101E38003AD1172E7EE1112032F07A95EE0FFF1F6E
:101E4800661F111CF9CFEF2FF62F612D5F938ADFE4
:101E58005F9108954F93AF01FD01DA01AB01BC0119
:101E6800CA01402D012C142E4F910895EA0FFB1F33
:101E7800681F0895E095F0956095EF5FFF4F6F4FED
:101E880008955F9381DF903871F150E8152604C0FA
:101E98005F937ADF903839F1703821F1572F591B49
:101EA8002BF112F4D7DFFACF583118F0AA27BB2745
:101EB8008827583028F0AB2FB82F88275850F9CFEB
:101EC800552329F08695B795A7955A95D9F7502D9A
:101ED800512572F0CBDF38F46795F795E795739540
:101EE80013F420C0B7DF3EDF5F910895D8F7FBCF2A
:101EF800EA1BFB0B680B51F010F40094BBDF662360
:101F080092F3EE0FFF1F661F7A95CBF7EE27FF2798
:101F1800662777275F910895EFEFFFEF6FE77FEF71
:101F28005F910895EFEFFFEF6FE77FE75F91089507
:101F38005F932ADF703851F3903841F301240894F5
:101F4800791F23F41CF300203AF3ECCF0F921F9370
:101F58002F933F934F93112722279927689FA0011A
:101F68008F9F302D410D591F6B9F300D411D591FFB
:101F78008E9F27D0BF9F25D06A9F23D0BE9F1DD09C
:101F8800AF9F1BD0AE9F110D291F391F491F591F25
:101F9800E32FF42F652F522F4F913F912F911F91CF
:101FA8000F9066232AF0550FEE1FFF1F661F02C011
:101FB80073954BF2CDDE5F910895100D211D391FE9
:101FC80002C0200D311D491F591F08955F93DCDEA3
:101FD800703821F411200AF49FCFA4CF903809F467
:101FE80095CF01240894970B1BF4D4F30020F3CF6A
:101FF800792F1F932F933F934F9311241127222753
:1020080033274427552790E2AE17BF0786074107B5
:1020180030F0AE1BBF0B860B410B089401C08894AF
:10202800551F221F331F111CAA1FBB1F881F441FC7
:102038009A9551F7F901612D4F913F912F911F9179
:10204800662332F0550FEE1FFF1F661F7A9543F285
:102058007FDE5F91089599239AF0772342F09717CE
:1020680048F029F4AE17BF07860720F031F098949E
:1020780088940895989408940895189488940895D5
:102088007723C2F7971798F3A9F7EA17FB076807AA
:1020980088F399F3ECCF0024AF0DB01D0895F195A6
:1020A800E195F0400895F09560957095E195FF4FA2
:1020B8006F4F7F4F0895FE2FFF0FFF0B6F2F7F2F5E
:1020C80008956F2F660F660B762F0895FA9FF02DEF
:1020D800EB9FF00DEA9FE02DF10D089579D0F6DF22
:1020E8000EF4DDDF0895002498E0AA0F001C0E1AF4
:1020F80010F40E0E01C0A1609A95B9F7EA2FA02D31
:1021080008955AD0F0DF0EF4E195089500241124C3
:1021180090E1AA0FBB1F001C111C0E1A1F0A18F40D
:102128000E0E1F1E01C0A1609A9599F7FD01D001FE
:1021380008953F934F935F93002411244427552714
:1021480030E2AA0FBB1F881F991F001C111C441FD7
:10215800551F0E1A1F0A460B570B28F40E0E1F1E8A
:10216800461F571F01C0A1603A9559F7FD01BC01F0
:10217800D001CA015F914F913F910895E894A7FF5C
:1021880002C0A1956894E7FDE195ADDFEA2F0EF452
:10219800E1950895E894B7FF04C0A095B09511960D
:1021A8006894F7FD7CDFB2DFFD010EF478DF089557
:1021B800C0DFFD01BC010895E894E7FF02C0E19586
:1021C8006894A7FF04C0A19500F8039400FA089545
:1021D800E894F7FF02C063DF6894B7FF06C0A095D4
:1021E800B095119600F8039400FA0895ED91FC91CA
:1021F80011970895ED91FD916D917C911397089534
:10220800E881F9816A817B810895A881B9818A81F1
:102218009B810895E883F9836A837B8308957A9381
:102228006A93FA93EA9308959A938A93BA93AA932E
:102238000895182E862F612D192E972F712D1B2E7C
:10224800BF2FF12D1A2EAE2FE12D08953097604043
:10225800704008955A934A933A932A931A930A938B
:1022680008955D814C813B812A81198108810895F7
:00000001FF
